:020000020000FC
:020000008FC0AF
:10004000B9C00000000F0F00000700000007070004
:10005000070003070700000F0F0FEF93FF93F0E077
:10006000E2E4E20FE20FE20FC895202DE395C89578
:10007000302DE395C895402DFF91EF91089502E052
:100080000ABB089508E027FD06C03324D99A3BBA7D
:100090000000000004C0D99A00000000D998220F87
:1000A0000A9589F708E037FD06C03324D99A3BBA90
:1000B0000000000004C0D99A00000000D998330F56
:1000C0000A9589F708E047FD06C03324D99A3BBA60
:1000D0000000000004C0D99A00000000D998440F25
:1000E0000A9589F70895D99801E4302E01E03A94F1
:1000F000F1F73A940A95D9F7089560E4B1E0A0E0E9
:100100002D91ABDFBFDF6A95D9F7EDDF0895089534
:1001100060E420E0B1E0A0E02D936A95E9F708954E
:100120000FEF0DBF00E10EBFAADF00E001BB0FEF34
:1001300007BB00E000936A0000E009BF00E0009305
:10014000380003E003BF08E000BF01E007BF789478
:10015000DFDFD3DFB1E0A4E420E02C93D0E0C0E007
:10016000B1E0A5E411E00C91011718F000E00C9348
:1001700056D0A3950C91011718F000E00C935FD0B6
:10018000A3950C91011718F000E00C9368D0A3958B
:100190000C91011718F000E00C9366D004E3302EA8
:1001A00006E03A94F1F73A940A95D9F7F894A5DF66
:1001B0007894D6CF2F933F934F93AF93BF9330B3A1
:1001C000B1E0A5E42C9141E031703413239540E077
:1001D000341320E02D9330B32C9142E0327034136D
:1001E000239540E0341320E02D9330B32C9144E06C
:1001F00034703413239540E0341320E02D9330B352
:100200002C9148E038703413239540E0341320E0FB
:100210002C93BF91AF914F913F912F9118950F93D0
:10022000AF93BF93B1E0A0E0AC0F0C91003009F4A4
:1002300008E00A950C93BF91AF910F9108950F9329
:10024000AF93BF93B1E0A0E0AC0F0C9103950830E1
:1002500009F401E00C93BF91AF910F910895CA95F5
:10026000CF3F09F4C4E00895C395C53009F4C0E058
:020270000895EF
:00000001FF
