:020000020000FC
:0200000077C0C7
:02000400AEC08C
:02000800ABC08B
:02000C00A2C090
:100010009FC00000000F0F0000070000000707004E
:10002000070003070700000F0F0FEF93FF93F0E0A7
:10003000E2E1E20FE20FE20FC895202DE395C895AB
:10004000302DE395C895402DFF91EF91089502E082
:100050000ABB089508E027FD06C03324D99A3BBAAD
:100060000000000004C0D99A00000000D998220FB7
:100070000A9589F708E037FD06C03324D99A3BBAC0
:100080000000000004C0D99A00000000D998330F86
:100090000A9589F708E047FD06C03324D99A3BBA90
:1000A0000000000004C0D99A00000000D998440F55
:1000B0000A9589F70895D99801E4302E01E03A9421
:1000C000F1F73A940A95D9F7089560E4B1E0A0E019
:1000D0002D91ABDFBFDF6A95D9F7EDDF0895089565
:1000E00060E420E0B1E0A0E02D936A95E9F708957F
:1000F0000FEF0DBF00E10EBFAADF00E001BB00E083
:1001000007BB789400E000936A000FE00093390089
:10011000E7DFDBDFB1E0A4E420E02C9320E085DF23
:1001200099DF21E082DF96DF22E07FDF93DF23E0AB
:100130007CDF90DF24E079DF8DDF25E076DF8ADF6A
:1001400026E073DF87DF27E070DF84DFBEDFE6CFE6
:100150001895B1E0A0E021E02C930FEF08BB1895B3
:040160001895189541
:00000001FF
