:020000020000FC
:0200000077C0C7
:020004009CC09E
:020008008FC0A7
:02000C008CC0A6
:1000100089C00000000F0F00000700000007070064
:10002000070003070700000F0F0FEF93FF93F0E0A7
:10003000E2E1E20FE20FE20FC895202DE395C895AB
:10004000302DE395C895402DFF91EF91089502E082
:100050000ABB089508E027FD06C03324D99A3BBAAD
:100060000000000004C0D99A00000000D998220FB7
:100070000A9589F708E037FD06C03324D99A3BBAC0
:100080000000000004C0D99A00000000D998330F86
:100090000A9589F708E047FD06C03324D99A3BBA90
:1000A0000000000004C0D99A00000000D998440F55
:1000B0000A9589F70895D99801E4302E01E03A9421
:1000C000F1F73A940A95D9F7089560E4B1E0A0E019
:1000D0002D91ABDFBFDF6A95D9F7EDDF0895089565
:1000E00060E420E0B1E0A0E02D936A95E9F708957F
:1000F0000FEF0DBF00E10EBFAADF00E001BB00E083
:1001000000936A0000E009BF00E000933800789493
:10011000E7DFDBDFB1E0A4E420E02C93F894D5DF47
:100120007894FCCF189518950F931F93B1E0A0E039
:100130000C910A9511E00C931F910F9118950F9354
:100140001F93B1E0A0E00C91039517E00C931F9171
:040150000F9118955E
:00000001FF
